:100000000C948C000C94B4000C94B4000C94170362
:100010000C9417030C9417030C94B4000C94B400C4
:100020000C94B4000C94B4000C94B4000C94B40080
:100030000C94B4000C94B4000C94B4000C94B40070
:100040000C94C7090C94B4000C94370A0C94110A50
:100050000C94B4000C94B4000C94B4000C94B40050
:100060000C94A7030C94B400EF06010704070B07D8
:10007000120740074707540761076D076D076D07B3
:100080006D076D076D076D076D076D076D076D07D0
:100090006D076D076D076D076D076D076D076D07C0
:1000A0006D076D076D076D07EF06FC060107040776
:1000B0000B07120719072607330700000008000284
:1000C0000100000304070000000000000000000021
:1000D0000000250028002B0000000000240027005D
:1000E0002A00000000002300260029000404040464
:1000F00004040404020202020202030303030303D2
:1001000001020408102040800102040810200102AE
:10011000040810209C0FA60C11241FBECFEFD8E0BE
:10012000DEBFCDBF11E0A0E0B1E0E8ECFEE202C02E
:1001300005900D92AA3EB107D9F724E0AAEEB1E0EE
:1001400001C01D92A436B207E1F710E0CBE8D0E081
:1001500004C02197FE010E941F14CA38D107C9F7B5
:100160000E94B00C0C9457170C940000209193023D
:10017000309194022817390771F49091910280917F
:100180009202981741F0E0919102F0E0EF5CFD4F90
:10019000808190E008958FEF9FEF089508951F9359
:1001A000CF93DF93DC015C962D913C915D972115F7
:1001B000310539F481E090E013969C938E93129769
:1001C0003DC05196ED91FC91529750969C9150975D
:1001D000892F80951FB75E964C915E9741FB7727DC
:1001E00070F941FD6095F8944081772311F0492B17
:1001F00001C048234083E9012197F1F748E050818D
:1002000060FF02C0592B01C058235083E901219798
:10021000F1F76695415099F7772321F09081892372
:10022000808303C08081982B90831FBF5C968D9143
:100230009C915D970197F1F721E030E0C901DF91D2
:10024000CF911F9108952091930230919402281725
:10025000390771F4809192022091910290E0805CC4
:100260009F4F821B910960E470E00E94E91308959A
:1002700080E090E008952091930230919402281735
:100280003907B9F49091910280919202981789F000
:10029000E0919102F0E0EF5CFD4F808120919102AE
:1002A00030E02F5F3F4F2F7333272093910290E070
:1002B00008958FEF9FEF08950895E0919602809141
:1002C0009502E81730F4F0E0EF58FD4F808190E0A0
:1002D00008958FEF9FEF0895909196028091950277
:1002E000981750F4E92FF0E0EF58FD4F208130E0EF
:1002F0009F5F9093960202C02FEF3FEFC9010895D0
:100300008091950290E020919602821B91090895B8
:10031000089580E090E0089585ED8093BC00809181
:10032000BC0084FDFCCF1092C602089540910C02DF
:10033000262F30E0240F311D21323105DCF42091CD
:10034000C6022430C9F4FC0180E090E0861758F41E
:1003500030910C022191DC01A651BE4FA30FB11DBB
:100360002C930196F3CF80910C02680F60930C02DE
:1003700080E0089581E0089582E00895CF92DF92B1
:10038000EF92FF920F931F93CF93DF937C01262F61
:10039000972F8A018091C702882391F0C62FD72F0B
:1003A0006E01C40ED51ECC15DD0571F06991D70123
:1003B000ED91FC910190F081E02DC7010995F3CFFB
:1003C000642F822F0E949601C801DF91CF911F9167
:1003D0000F91FF90EF90DF90CF900895CF93DF9330
:1003E0001F92CDB7DEB769832091C7022223D1F0D7
:1003F0002091EA02203240F021E030E0FC0133831A
:10040000228380E090E015C08091C802E82FF0E0E0
:10041000E753FD4F998190838F5F8093C80280934B
:10042000EA0205C061E0CE0101960E94960181E0DA
:1004300090E00F90DF91CF910895CF93DF93EC017F
:100440008A859B85AC85BD858E839F83A887B98768
:100450000E949A0C6A837B838C839D8381E08983CD
:100460008883DF91CF9108952F923F924F925F92B0
:100470006F927F928F929F92AF92BF92CF92DF92B4
:10048000EF92FF920F931F93CF93DF93D82FC92F33
:100490008B010E94611124E630E040E050E00E94B0
:1004A000FD1349015A019B01AC0160E876E988E936
:1004B00090E00E94D9136B017C01F8019182808247
:1004C000ED2FFC2F2191822F022E000C990BC0974B
:1004D0000A97C0F32E3239F51F0180E8882E86E98D
:1004E000982E88E9A82EB12C9AE0492E512C612C27
:1004F000712CF101C1911F010C2E000CDD0BE09756
:10050000CA30D10580F4C501B401A30192010E9453
:10051000FD1349015A01DE010E943014C60ED71E98
:10052000E81EF91EE6CFA5E0B0E0A70196010E9403
:1005300025146F5F7F4F8F4F9F4F23E030E040E0E7
:1005400050E00E94FD13F8012283338344835583D6
:100550001682DF91CF911F910F91FF90EF90DF9066
:10056000CF90BF90AF909F908F907F906F905F9053
:100570004F903F902F900895FF920F931F93CF932A
:10058000DF93EC01FF24F39488818D3211F0F12C7C
:1005900001C02196CE010E9461119B01AC01A4E62D
:1005A000B0E00E942514FE014991242F042E000C76
:1005B000330B205331092A303105A8F34E3241F56F
:1005C0002181022E000C330B205331092A303105D2
:1005D000F8F44AE0429F8001439F100D1124012E40
:1005E000000C220B330B600F711F821F931F0281BF
:1005F000002E000C110B005311090A30110540F4B4
:10060000012E000C220B330B600F711F821F931FF2
:10061000FF2039F090958095709561957F4F8F4FB1
:100620009F4FDF91CF911F910F91FF9008951F92DF
:100630000F920FB60F9211242F933F934F935F9316
:100640006F937F938F939F93AF93BF93EF93FF939A
:10065000E0919302F0919402309709F451C0968D85
:10066000A685B785858591FF04C09C91892329F4CF
:1006700047C09C91892309F043C0A389B4899C9108
:100680008589809589238C93868997890197F1F7CD
:10069000608D718DA685B785558538E020E0CB014A
:1006A0000197F1F7822F90E095958795282F4C912F
:1006B000452309F02068315091F7868D81FD209502
:1006C0008091920290E001968F7399273091910268
:1006D000381749F0A0919202B0E0AF5CBD4F2C9367
:1006E0008093920203C0868D8160868F828D938D68
:1006F0000197F1F7A389B4899C918589892B8C9303
:10070000FF91EF91BF91AF919F918F917F916F91E9
:100710005F914F913F912F910F900FBE0F901F90BF
:100720001895E0919302F0919402E817F90769F4A3
:10073000A389B4899C918589809589238C93109293
:1007400094021092930281E0089580E008951F9230
:100750000F920FB60F9211242F933F934F935F93F5
:100760006F937F938F939F93AF93BF93EF93FF9379
:100770008091B900887F803609F49CC068F5883282
:1007800009F45BC090F4803109F454C038F4882334
:1007900009F4F6C0883009F44DC0F6C0883109F478
:1007A0004CC0803209F45DC0EFC0803409F468C0E9
:1007B00048F4803309F455C0883309F0E5C08093CC
:1007C000C402D8C0803509F44FC0883509F45DC033
:1007D000883409F0D9C0D6C0883909F4C7C0A8F454
:1007E000883709F467C038F4883609F463C0803765
:1007F00009F460C0C9C0883809F4B8C0803909F468
:100800005FC0803809F0C0C05BC0803B09F486C07F
:1008100038F4803A09F466C0883A09F47FC0B4C05D
:10082000803C09F4A7C0883C09F4A4C0883B09F4C3
:100830008AC0AAC08091A10210C09091C302809189
:10084000C202981770F5E091C30281E08E0F809389
:10085000C302F0E0EE55FD4F80818093BB0085EC34
:1008600086C08093C4028EC0E091C30281E08E0FE7
:100870008093C3028091BB00F0E0EE55FD4F808372
:100880009091C3028091C2026EC0E091C30281E0E8
:100890008E0F8093C3028091BB00F0E0EE55FD4FB8
:1008A00080838091C50281116DC081E08093A00298
:1008B00084EA61C083E08093C60210923002CFCFF9
:1008C00080913002803208F051C0E091300281E026
:1008D0008E0F809330028091BB00F0E0E05FFD4F0F
:1008E0008083BDCF85EC8093BC001092C6028091BE
:1008F0003002803230F4E0913002F0E0E05FFD4FF2
:1009000010826091300270E0E0910E02F0910F02CF
:1009100080E192E009951092300236C084E0809325
:10092000C60210920D0210920C02E0910A02F091A0
:100930000B02099580910C02811105C081E0809322
:100940000C021092EA01E0910D0281E08E0F80937B
:100950000D02F0E0E651FE4F80818093BB00909144
:100960000D0280910C02981708F479CF85E88093E6
:10097000BC000AC085EC8093BC001092C60204C083
:100980001092C4020E948C01FF91EF91BF91AF9130
:100990009F918F917F916F915F914F913F912F9197
:1009A0000F900FBE0F901F9018954F925F926F920D
:1009B0007F928F929F92AF92BF92CF92DF92EF92EF
:1009C000FF920F931F93CF93DF932B013C010E9463
:1009D0009A0C4B015C0182E0C82ED1E097E0D92E41
:1009E00084E993E00E942301892B09F4DCC284E9A5
:1009F00093E00E943B01C82F8091500490915104D4
:100A0000A0915204B09153040196A11DB11D809391
:100A1000500490935104A0935204B0935304C432F1
:100A200009F4A0C2E0914A04C53234F4CA3071F02E
:100A3000CD3009F0A4C20AC0CA3241F0CC3209F06C
:100A40009EC2809137048C2780933704EF3008F0E2
:100A50007BC2F0E0E75CFB4F108280913804882372
:100A600009F46BC1209139043FEB320F822F022E23
:100A7000000C990B363010F4C79707C0215626306A
:100A800018F48755910901C0C097282F2295207F1F
:100A900030913A044FEB430F832F032E000C990B38
:100AA000463010F4C79707C03156363018F48755D2
:100AB000910901C0C097820F90913704891329C111
:100AC00080915C0490915D04A0915E04B0915F04FC
:100AD0000196A11DB11D80935C0490935D04A093C9
:100AE0005E04B0935F0480914B04882399F0809159
:100AF000540490915504A0915604B0915704019666
:100B0000A11DB11D8093540490935504A0935604E5
:100B1000B093570410914804112309F46BC01130AD
:100B200009F0D0C08091DB039091DC03A091DD033C
:100B3000B091DE038093D7039093D803A093D90399
:100B4000B093DA030E949A0C6093DF037093E00382
:100B50008093E1039093E2031093D6031093D5039F
:100B60008091E9039091EA03A091EB03B091EC032B
:100B70008093E5039093E603A093E703B093E80323
:100B80000E949A0C6093ED037093EE038093EF0341
:100B90009093F0031093E4031093E30380914B04CC
:100BA000882309F48FC0E3ECF3E0A5EBB3E08D2DCF
:100BB00001900D928A95E1F7EAECF3E0ACEBB3E03B
:100BC0008D2D01900D928A95E1F70E949A0C609309
:100BD000D1037093D2038093D3039093D4031093E3
:100BE000B4031093B30381EF93E00E941D028FEFD3
:100BF00093E066C08091E9039091EA03A091EB0332
:100C0000B091EC038093E5039093E603A093E70390
:100C1000B093E8030E949A0C6093ED037093EE0387
:100C20008093EF039093F003D093E403D093E30316
:100C300080914B04882321F1E3ECF3E0A5EBB3E0D2
:100C40008D2D01900D928A95E1F7EAECF3E0ACEB83
:100C5000B3E08D2D01900D928A95E1F70E949A0CD8
:100C60006093D1037093D2038093D3039093D40302
:100C7000D093B403D093B3038DE094E00E941D029F
:100C80008091250490912604A0912704B091280416
:100C90008093210490932204A0932304B09324040E
:100CA0000E949A0C60931D0470931E0480931F048D
:100CB00090932004D0931C04D0931B0489E294E009
:100CC0000E941D0200914E0410914F040115110560
:100CD00009F43AC1E0914E04F0914F0466A177A166
:100CE000F80186A197A10E946014892B09F02CC1FC
:100CF000B801C80140960E9469140E949A0CF8013C
:100D000060A371A382A393A3D5A3D4A302A513A523
:100D1000DDCF8091580490915904A0915A04B0916C
:100D20005B040196A11DB11D809358049093590452
:100D3000A0935A04B0935B0407C1909149049111A8
:100D400036C06AE471E089E394E00E946014892B64
:100D500019F4D09348040DC060E571E089E394E094
:100D60000E946014892B19F41092480402C0C092AA
:100D7000480480914C0490914D0490934F048093CB
:100D80004E0400914E0410914F040115110509F411
:100D9000DBC0F801E6A0F7A069E374E0C7010E9498
:100DA000601497FFC5C0F80182A593A5E6CFE09136
:100DB0004804E23009F491C080913904882309F491
:100DC0008CC020E2E29FF0011124E92B3197E93237
:100DD000F10508F082C0EC5CFF4F0C941F1489E30E
:100DE00094E00E94BC026093E9037093EA0380934D
:100DF000EB039093EC0371C091E0813409F043C0A0
:100E000043C063EC73E009C091E0833509F090E0E2
:100E10009093C90362C06AEC73E089E394E00E9496
:100E200034025BC091E0873509F090E09093D003E5
:100E300054C089E394E00E94BC026093FB0370936A
:100E4000FC038093FD039093FE0347C089E394E085
:100E50000E94BC026093090470930A0480930B04FF
:100E600090930C043AC089E394E00E94611160936E
:100E7000DB037093DC038093DD039093DE032DC0CE
:100E800091E081330CF490E090934B0426C089E309
:100E900094E00E946111609325047093260480936E
:100EA00027049093280419C089E394E00E94BC02AF
:100EB0006093330470933404809335049093360424
:100EC0000CC089E394E00E94BC0260931704709305
:100ED00018048093190490931A0400914E04109101
:100EE0004F040115110581F1E0914E04F0914F047A
:100EF00066A177A1F80186A197A10E946014892BB1
:100F000019F5F80120A531A58091490490E08217D8
:100F10009307D4F02817390739F440E150E069E32A
:100F200074E0C8010E947014F80102A513A5D9CF7E
:100F300069E374E0C7010E9460141816190624F4CE
:100F400010924F0410924E04809149048F5F809359
:100F5000490410924A0481E0CA3209F080E080938B
:100F600038043ECD10924A0410924904109237047E
:100F7000C09248041092380410924B0431CDEE30E8
:100F800040F481E08E0F80934A04F0E0E75CFB4F71
:100F9000C08380913804811123CD80913704C82704
:100FA000C09337041DCD0E949A0CDC01CB01881937
:100FB0009909AA09BB0984159505A605B70508F482
:100FC0000FCDDF91CF911F910F91FF90EF90DF90A8
:100FD000CF90BF90AF909F908F907F906F905F90D9
:100FE0004F900895CF92DF92EF92FF920F931F934D
:100FF000CF93DF936C017A018B01C0E0D0E0CE1576
:10100000DF0589F0D8016D918D01D601ED91FC913C
:101010000190F081E02DC6010995892B11F47E0124
:1010200002C02196ECCFC701DF91CF911F910F91A4
:10103000FF90EF90DF90CF900895FC01538D448D89
:10104000252F30E0842F90E0821B930B541710F073
:10105000CF96089501970895FC01918D828D981780
:1010600061F0828DDF01A80FB11D5D968C91928D8C
:101070009F5F9F73928F90E008958FEF9FEF089589
:10108000FC01918D828D981731F0828DE80FF11D52
:10109000858D90E008958FEF9FEF0895FC01918D6D
:1010A000228D892F90E0805C9F4F821B91098F7366
:1010B000992708958BEE92E00E944E0821E0892B3B
:1010C00009F420E0822F0895FC01848DDF01A80F30
:1010D000B11DA35ABF4F2C91848D90E001968F7360
:1010E0009927848FA689B7892C93A089B1898C917F
:1010F00080648C93938D848D981306C00288F38945
:10110000E02D80818F7D80830895EF92FF920F9371
:101110001F93CF93DF93EC0181E0888F9B8D8C8DA3
:10112000981305C0E889F989808185FD24C0F62ED1
:101130000B8D10E00F5F1F4F0F731127E02E8C8D6A
:10114000E8120CC00FB607FCFACFE889F989808154
:1011500085FFF5CFCE010E946408F1CF8B8DFE0193
:10116000E80FF11DE35AFF4FF0820B8FEA89FB89EC
:101170008081806207C0EE89FF896083E889F989F0
:1011800080818064808381E090E0DF91CF911F9126
:101190000F91FF90EF900895CF93DF93EC01888D2E
:1011A0008823C9F0EA89FB89808185FD05C0A8896B
:1011B000B9898C9186FD0FC00FB607FCF5CF8081F1
:1011C00085FFF2CFA889B9898C9185FFEDCFCE013B
:1011D0000E946408E7CFDF91CF91089580E090E00E
:1011E000892B29F00E945A0881110C94000008955F
:1011F0000E945B14CF93DF931F92CDB7DEB781E0DF
:101200008093C70281E58093E9021092C802109290
:10121000EA0288E893E049830E94EE014981642F45
:1012200088E893E00E94EE010F90DF91CF910C943B
:10123000690A81E08093C70281E58093E9021092F8
:10124000C8021092EA0288E893E00E94EE010E9430
:10125000690A8091C6028111FCCF91E09093C60289
:101260009093C5022FEF2093C4021092C3021092F4
:10127000C2029093A1029091A102926A9093A1025E
:101280009091A002913061F41092A0029091A1027D
:101290009093BB009091BC0093FDF8CF95EC01C0FA
:1012A00095EE9093BC009091C6029130E1F390913D
:1012B000C302911103C09091C30201C091E0A2EA60
:1012C000B2E041E752E0FA012E2F241B291718F44F
:1012D0002D912193F9CF109296029093950291113E
:1012E00006C09BE0915011F00000FCCF08950E94D1
:1012F000690A88E893E00E946C010895EF92FF92DA
:101300001F93CF93DF9300D0CDB7DEB77C01462F7C
:101310006A3049F06D3089F1693059F566E571E060
:1013200080E290E023C063E070E00E941909182F6A
:1013300061E070E0C7010E9419098F70E82FF0E0AA
:10134000E050FF4F8081212F30E0280F311D280F02
:10135000311D1982213431051CF4180F1A8301C084
:101360001A82BE016F5F7F4F82E090E00E94090CFD
:1013700004C060E270E00E94FA0881E090E00F9003
:101380000F90DF91CF911F91FF90EF9008951F92E2
:101390000F920FB60F9211242F933F938F939F9329
:1013A000AF93BF938091980290919902A0919A0275
:1013B000B0919B023091970223E0230F2D3720F448
:1013C0000196A11DB11D05C026E8230F0296A11D9F
:1013D000B11D209397028093980290939902A09355
:1013E0009A02B0939B0280919C0290919D02A091E1
:1013F0009E02B0919F020196A11DB11D80939C0297
:1014000090939D02A0939E02B0939F02BF91AF91D3
:101410009F918F913F912F910F900FBE0F901F9032
:1014200018951F920F920FB60F9211242F933F938E
:101430004F935F936F937F938F939F93AF93BF93DC
:10144000EF93FF938BEE92E00E946408FF91EF917F
:10145000BF91AF919F918F917F916F915F914F91CC
:101460003F912F910F900FBE0F901F9018951F92D4
:101470000F920FB60F9211242F938F939F93EF9398
:10148000FF93E091FB02F091FC028081E091010367
:10149000F091020382FD12C09081809104038F5F5E
:1014A0008F7320910503821751F0E0910403F0E05F
:1014B000E551FD4F958F8093040301C08081FF911A
:1014C000EF919F918F912F910F900FBE0F901F90D2
:1014D00018952091EA029091E902213208F04AC061
:1014E0008091C6028111FCCF32E03093C60231E018
:1014F0003093C5023FEF3093C4021092C302209391
:10150000C202A9ECB2E042EA52E0FA013E2F341BDB
:10151000321718F43D913193F9CF1092A102209126
:10152000A102990F922B9093A1029091A002913069
:1015300061F41092A0029091A1029093BB0090914F
:10154000BC0093FDF8CF95EC01C095EE9093BC00E4
:101550009091C6029230E1F39091C4029F3F79F0DE
:101560008091C402803241F08091C402803331F016
:1015700084E005C081E003C082E001C083E01092F6
:10158000C8021092EA021092C7020895009769F00B
:10159000FC0101900020E9F73197AF01481B590B7E
:1015A000BC0180E694E00C94F20780E090E008959E
:1015B000CF93DF930E94C60AEC018AE891E00E9473
:1015C000C60A8C0F9D1FDF91CF9108958F929F9235
:1015D000AF92BF920F931F93CF93DF93CDB7DEB738
:1015E000A1970FB6F894DEBF0FBECDBF19A242304F
:1015F00008F44AE08E010F5D1F4F842E912CA12C20
:10160000B12CA50194010E94FD13E62FB901CA0176
:1016100001501109EA3014F4E05D01C0E95CD80121
:10162000EC93232B242B252B61F7C8010E94C60ABB
:10163000A1960FB6F894DEBF0FBECDBFDF91CF915C
:101640001F910F91BF90AF909F908F9008954F92F0
:101650005F926F927F928F929F92AF92BF92CF9242
:10166000DF92EF92FF92CF93DF936B017C01B42E58
:101670009B01AC010E94D413882319F08EED91E0F8
:101680001AC026013701E89477F82FEF3FEF4FE7B4
:101690005FE7C301B2010E94D413811110C02FEF84
:1016A0003FEF4FE75FE7C301B2010E940A1218162D
:1016B00034F482EE91E00E94C60AEC0195C02FEF4F
:1016C0003FEF4FE75FE4C701B6010E9462131816AF
:1016D0001CF486EE91E0EFCF2FEF3FEF4FE75FEC8A
:1016E000C701B6010E940A1287FDF3CF20E030E067
:1016F000A901C701B6010E940A1287FF11C0E0913B
:101700006004F09161040190F081E02D6DE280E6CB
:1017100094E00995EC01F7FAF094F7F8F09402C020
:10172000C0E0D0E0A12C60E070E080E09FE3AB146B
:1017300040F420E030E040E251E40E940F12A39414
:10174000F6CF9B01AC01C701B6010E949E112B018F
:101750003C010E9481126B017C010E94B0129B012E
:10176000AC01C301B2010E949D112B013C014AE072
:10177000C701B6010E94E60AC80FD91FBB2069F055
:10178000E0916004F09161040190F081E02D6EE23F
:1017900080E694E00995C80FD91FFB2CFF2021F1AA
:1017A00020E030E040E251E4C301B2010E9467133F
:1017B0002B013C010E9481124B01A12CB12C4AE06B
:1017C000C501B4010E94E60AC80FD91FC501B401C2
:1017D0000E94B0129B01AC01C301B2010E949D1195
:1017E0002B013C01FA94DACF8AE891E00E94C60A04
:1017F0008C0F9D1FDF91CF91FF90EF90DF90CF90E6
:10180000BF90AF909F908F907F906F905F904F9020
:101810000895CF93DF93EB0191E09093C70291E598
:101820009093E9021092C8021092EA02682F88E8A9
:1018300093E00E94EE01688188E893E00E94EE0147
:10184000698188E893E00E94EE01DF91CF910C94CA
:10185000690A90E0FC01E654FF4F3491FC01E0502E
:10186000FF4F2491FC01E451FF4FE491EE2309F472
:101870003BC0332339F1333091F038F43130A9F0E3
:10188000323001F584B58F7D12C0373091F0383099
:10189000A1F03430B9F4809180008F7D03C0809135
:1018A00080008F77809380000DC084B58F7784BDD2
:1018B00009C08091B0008F7703C08091B0008F7D08
:1018C0008093B000F0E0EE0FFF1FE253FF4FA591B1
:1018D000B4918FB7F894EC91611103C020952E2339
:1018E00001C02E2B2C938FBF08953FB7F8948091A1
:1018F0009C0290919D02A0919E02B0919F0226B5FC
:10190000A89B05C02F3F19F00196A11DB11D3FBF37
:10191000BA2FA92F982F8827820F911DA11DB11DC5
:10192000BC01CD0142E0660F771F881F991F4A95C1
:10193000D1F708952FB7F8946091980270919902A9
:1019400080919A0290919B022FBF089580E391E0CD
:10195000909395038093940384E993E00C9491030E
:10196000CF93DF93CDB7DEB7A0970FB6F894DEBF65
:101970000FBECDBF789484B5826084BD84B581608C
:1019800084BD85B5826085BD85B5816085BD80914A
:101990006E00816080936E001092810080918100C2
:1019A00082608093810080918100816080938100BA
:1019B000809180008160809380008091B10084607C
:1019C0008093B1008091B00081608093B0008091DD
:1019D0007A00846080937A0080917A00826080939C
:1019E0007A0080917A00816080937A0080917A00F9
:1019F000806880937A001092C1001092AF03109219
:101A0000AE031092AD031092AC031092AB03109290
:101A1000AA038DE991E09093B1038093B003909174
:101A2000A003963108F057C02DEB30E03093AB03A4
:101A30002093AA032BE931E03093AD032093AC034C
:101A40002CE231E03093AF032093AE032091680085
:101A5000983050F031E09E3008F430E081E001C071
:101A6000880F3A95EAF701C084E0822B80936800E2
:101A7000983038F09E3040F0963148F020E030E069
:101A800008C02DE630E005C02BE630E002C02CE6B1
:101A900030E03093A8032093A703983030F481E01E
:101AA00001C0880F9A95EAF70EC0292F30E09E30CA
:101AB00018F42850310902C02E50310981E001C0CC
:101AC000880F2A95EAF78093A9038091B00390913B
:101AD000B1030197F1F78091AE039091AF03892B89
:101AE00021F1809193029091940223E0843992072E
:101AF000E1F0009711F00E9491038091B2038E7F74
:101B00008093B203109292021092910284E993E0C2
:101B10009093940280939302E091A703F091A8031D
:101B200090818091A903892B8083E091FB02F09141
:101B3000FC0282E08083E091F702F091F8021082CB
:101B4000E091F902F091FA028FEC80831092030386
:101B5000E091FF02F091000386E08083E091FD02B6
:101B6000F091FE02808180618083E091FD02F0911E
:101B7000FE02808188608083E091FD02F091FE0288
:101B8000808180688083E091FD02F091FE02808177
:101B90008F7D808310929602109295021092C80257
:101BA0001092EA021092C60281E08093C502109260
:101BB000A00261E082E10E94290C61E083E10E94C1
:101BC000290C8091B9008E7F8093B9008091B90073
:101BD0008D7F8093B90088E48093B80085E480937A
:101BE000BC0060E870E080E694E00E9419098F79FB
:101BF000482F406460E870E080E694E00E94FA08B4
:101C00000E94750C4B015C0138EEC32E33E0D32EDD
:101C1000E12CF12C0E94750CDC01CB01881999098B
:101C2000AA09BB09883E9340A105B10558F081E09F
:101C3000C81AD108E108F10898EE890E93E0991EC0
:101C4000A11CB11CC114D104E104F10419F740E84E
:101C500061E070E080E694E00E94FA088E010F5F78
:101C60001F4F84E6C82ED12CE12CF12C90E1492E97
:101C700097E2592E612C712C29E6222E21E0322E7A
:101C800019821A82B80182E090E00E94090C8091CA
:101C9000D5038823A1F11092D6038090D7039090AA
:101CA000D803A090D903B090DA03C501B401A7010D
:101CB00096010E94FD136053784F7F936F93CA0182
:101CC000B901A70196010E94FD137F936F93C5018F
:101CD000B401A30192010E94FD131F922F93A9E565
:101CE000B1E0BF93AF931F930F930E947F14C8017D
:101CF0000E94C60A0FB6F894DEBF0FBECDBF80911A
:101D0000E3038823F1F11092E4038090E5039090BF
:101D1000E603A090E703B090E803C501B401A70172
:101D200096010E94FD13CA01B901A70196010E9404
:101D3000FD137F936F93C501B401A30192010E942B
:101D4000FD13CA01B901A70196010E94FD137F93FB
:101D50006F93C501B40120E432E44FE050E00E94EB
:101D6000FD131F922F933F922F921F930F930E9468
:101D70007F14C8010E94D80A0FB6F894DEBF0FBEC8
:101D8000CDBF60E070E0CB010E94D50487E591E013
:101D90000E94D80A80911B048823A9F089E791E06A
:101DA0000E94C60A10921C046091210470912204C2
:101DB000809123049091240445E00E94E60A8AE879
:101DC00091E00E94C60A809129048823A9F08DE839
:101DD00091E00E94C60A10922A0460912F0470912B
:101DE0003004809131049091320445E00E94E60A6B
:101DF0008AE891E00E94C60A8091B303882309F41F
:101E00005CC085E991E00E94C60A1092B40360911B
:101E1000B5037091B60380E090E00E94B0124B01D0
:101E20005C016091B7037091B8038091B903909100
:101E3000BA030E94B01228E23BE64EE65EE40E943E
:101E40000F129B01AC01C501B4010E949E112091AB
:101E5000BB032111905846E050E00E94270B82EA14
:101E600091E00E94C60A1092B4036091BC03709185
:101E7000BD0380E090E00E94B0124B015C016091D4
:101E8000BE037091BF038091C0039091C1030E9473
:101E9000B01228E23BE64EE65EE40E940F129B0180
:101EA000AC01C501B4010E949E112091C203211111
:101EB000905846E050E00E94270B80910D04882343
:101EC000D1F08FEA91E00E94C60A10920E04609150
:101ED00013047091140480911504909116040E94CB
:101EE000B21220E030E048EC52E40E940F1242E0CF
:101EF00050E00E94270B68EE73E080E090E00E94C3
:101F0000D5040E949A0C693873418105910560F0EF
:101F10008091500490915104A0915204B0915304C7
:101F20000A97A105B10518F00E94EE08A9CE8BEB27
:101F300091E00E94D80AF8CFCF93DF931092EE027F
:101F40001092ED0288EE93E0A0E0B0E08093EF0203
:101F50009093F002A093F102B093F2022CE031E0F2
:101F60003093EC022093EB0225EC30E03093F80242
:101F70002093F70224EC30E03093FA022093F90228
:101F800020EC30E03093FC022093FB0221EC30E0A7
:101F90003093FE022093FD0222EC30E030930003E8
:101FA0002093FF0226EC30E03093020320930103DC
:101FB0001092040310920503109206031092070377
:101FC00010928B0310928A0380938C0390938D035D
:101FD000A0938E03B0938F032EE131E030938903F9
:101FE00020938803109263041092620422E431E08B
:101FF00030936104209360041092B3031092B403F1
:102000001092B6031092B5031092B7031092B80362
:102010001092B9031092BA031092BB031092BD0341
:102020001092BC031092BE031092BF031092C00323
:102030001092C1031092C2031092C4031092C30302
:102040001092C5031092C6031092C7031092C803E2
:102050001092C9031092CB031092CA031092CC03C2
:102060001092CD031092CE031092CF031092D003A2
:102070001092D5031092D6031092D7031092D80372
:102080001092D9031092DA031092E3031092E40342
:102090001092E5031092E6031092E7031092E80312
:1020A0001092F1031092F2031092F7031092F803CA
:1020B0001092F9031092FA031092FF031092000499
:1020C000109205041092060410920704109208045E
:1020D00010920D0410920E04109213041092140426
:1020E000109215041092160410921B0410921C04F6
:1020F00010922104109222041092230410922404BE
:102100001092290410922A0410922F041092300485
:102110001092310410923204109237041092380455
:1021200022E0209348041092490410924A0410922D
:102130004B0410924D0410924C0410924F041092D4
:102140004E041092500410925104109252041092B6
:102150005304109254041092550410925604109295
:102160005704109258041092590410925A04109275
:102170005B0410925C0410925D0410925E04109255
:102180005F04109239041092970310929603809383
:10219000980390939903A0939A03B0939B0380E3D1
:1021A00091E090939503809394031092AB03109267
:1021B000AA031092AD031092AC031092AF031092D9
:1021C000AE031092B1031092B0036091B2036E7F20
:1021D0006D7F6093B2036695617081E0682783E04C
:1021E0000E94290CE3E0F1E02491EFEEF0E084910D
:1021F000882399F090E0880F991FFC01E852FF4F67
:10220000A591B491FC01E253FF4F859194918FB752
:10221000F894EC91E22BEC938FBFE3E0F1E0E491D2
:10222000E093A403EFEEF0E0E491F0E0EE0FFF1F87
:10223000E253FF4F859194919093A6038093A50359
:10224000E2E0F1E02491EEEEF0E084918823C1F029
:1022500090E0880F991FFC01E852FF4FC591D4917F
:10226000FC01E253FF4FA591B4919FB7F894888188
:10227000E22FE0958E2388838C91E823EC939FBF17
:102280008091B20381FD04C061E082E00E94290CCC
:1022900082E08093A003E2E0F1E0E491E093A10307
:1022A000EEEEF0E0E491F0E0EE0FFF1FEE51FF4F95
:1022B000859194919093A3038093A203DF91CF9192
:1022C00008951F93FC0199278827BC01E894119178
:1022D0001032E9F3193010F01E30C8F31B3251F000
:1022E0001D3249F4689406C00E948811610F711D67
:1022F000811D911D119110531A30B0F33EF4909549
:102300008095709561957F4F8F4F9F4F1F910895D6
:10231000592F482F372F262F660F771F881F991F99
:10232000660F771F881F991F620F731F841F951FE9
:10233000660F771F881F991F08955058BB27AA273B
:102340000E94B5110C9428130E941A1338F00E94B1
:10235000211320F039F49F3F19F426F40C9417133D
:102360000EF4E095E7FB0C941113E92F0E9439134A
:1023700058F3BA17620773078407950720F079F4BA
:10238000A6F50C945B130EF4E0950B2EBA2FA02D3E
:102390000B01B90190010C01CA01A0011124FF2712
:1023A000591B99F0593F50F4503E68F11A16F0400D
:1023B000A22F232F342F4427585FF3CF469537950C
:1023C0002795A795F0405395C9F77EF41F16BA0BD1
:1023D000620B730B840BBAF09150A1F0FF0FBB1F7F
:1023E000661F771F881FC2F70EC0BA0F621F731FC8
:1023F000841F48F4879577956795B795F7959E3F25
:1024000008F0B0CF9395880F08F09927EE0F9795B5
:10241000879508950E94ED1208F481E008950E94C6
:1024200023120C9428130E94211358F00E941A13AF
:1024300040F029F45F3F29F00C94111351110C94D2
:102440005C130C9417130E94391368F39923B1F3AA
:10245000552391F3951B550BBB27AA2762177307CA
:10246000840738F09F5F5F4F220F331F441FAA1F5E
:10247000A9F335D00E2E3AF0E0E832D0915050401A
:10248000E695001CCAF72BD0FE2F29D0660F771FC8
:10249000881FBB1F261737074807AB07B0E809F0AE
:1024A000BB0B802DBF01FF2793585F4F3AF09E3F33
:1024B000510578F00C9411130C945C135F3FE4F316
:1024C000983ED4F3869577956795B795F7959F5F76
:1024D000C9F7880F911D9695879597F90895E1E0C2
:1024E000660F771F881FBB1F621773078407BA0721
:1024F00020F0621B730B840BBA0BEE1F88F7E0957C
:1025000008950E94411388F09F5798F0B92F99279A
:10251000B751B0F0E1F0660F771F881F991F1AF0CE
:10252000BA95C9F714C0B13091F00E945B13B1E0C5
:1025300008950C945B13672F782F8827B85F39F0C4
:10254000B93FCCF3869577956795B395D9F73EF467
:1025500090958095709561957F4F8F4F9F4F08950F
:10256000E89409C097FB3EF490958095709561952D
:102570007F4F8F4F9F4F9923A9F0F92F96E9BB27E3
:102580009395F695879577956795B795F111F8CF5F
:10259000FAF4BB0F11F460FF1BC06F5F7F4F8F4FCA
:1025A0009F4F16C0882311F096E911C0772321F0C0
:1025B0009EE8872F762F05C0662371F096E8862F58
:1025C00070E060E02AF09A95660F771F881FDAF7AF
:1025D000880F9695879597F90895990F0008550FDC
:1025E000AA0BE0E8FEEF16161706E807F907C0F099
:1025F00012161306E407F50798F0621B730B840BA1
:10260000950B39F40A2661F0232B242B252B21F47A
:1026100008950A2609F4A140A6958FEF811D811D1A
:10262000089597F99F6780E870E060E008959FEF54
:1026300080EC089500240A94161617061806090659
:10264000089500240A941216130614060506089528
:10265000092E0394000C11F4882352F0BB0F40F4B0
:10266000BF2B11F460FF04C06F5F7F4F8F4F9F4FF0
:10267000089557FD9058440F551F59F05F3F71F072
:102680004795880F97FB991F61F09F3F79F08795D9
:102690000895121613061406551FF2CF4695F1DF62
:1026A00008C0161617061806991FF1CF86957105F2
:1026B000610508940895E894BB2766277727CB0126
:1026C00097F908950E94ED1208F48FEF08950E9483
:1026D0007A130C9428130E941A1338F00E942113C5
:1026E00020F0952311F00C9411130C94171311245E
:1026F0000C945C130E94391370F3959FC1F3950FEE
:1027000050E0551F629FF001729FBB27F00DB11D75
:10271000639FAA27F00DB11DAA1F649F6627B00D05
:10272000A11D661F829F2227B00DA11D621F739FEE
:10273000B00DA11D621F839FA00D611D221F749FFC
:102740003327A00D611D231F849F600D211D822F43
:10275000762F6A2F11249F5750409AF0F1F088236A
:102760004AF0EE0FFF1FBB1F661F771F881F915097
:102770005040A9F79E3F510580F00C9411130C9422
:102780005C135F3FE4F3983ED4F3869577956795A5
:10279000B795F795E7959F5FC1F7FE2B880F911DC1
:1027A0009695879597F908950E94ED12880B990BDD
:1027B0000895DB018F939F930E942514BF91AF91E1
:1027C000A29F800D911DA39F900DB29F900D11248B
:1027D000089597FB072E16F4009407D077FD09D0D3
:1027E0000E94381407FC05D03EF4909581959F4FC8
:1027F0000895709561957F4F0895A1E21A2EAA1B46
:10280000BB1BFD010DC0AA1FBB1FEE1FFF1FA217A0
:10281000B307E407F50720F0A21BB30BE40BF50B9D
:10282000661F771F881F991F1A9469F76095709526
:10283000809590959B01AC01BD01CF010895EE0FED
:10284000FF1F0590F491E02D09940E944C14A59F60
:10285000900DB49F900DA49F800D911D112408959B
:10286000B7FF0C9425140E942514821B930B089526
:10287000AA1BBB1B51E107C0AA1FBB1FA617B707A6
:1028800010F0A61BB70B881F991F5A95A9F78095C2
:102890009095BC01CD010895A29FB001B39FC001E6
:1028A000A39F700D811D1124911DB29F700D811D7C
:1028B0001124911D089581E090E0F8940C9457172D
:1028C000FB01DC018D91019080190110D9F3990B66
:1028D0000895FB01DC0101900D920020E1F70895BD
:1028E000FB01DC014150504048F001900D92002066
:1028F000C9F701C01D9241505040E0F70895AEE085
:10290000B0E0E5E8F4E10C942E170D891E8986E00D
:102910008C831A8309838FEF9FE79E838D83AE019B
:10292000475E5F4F6F89788DCE0101960E94A21499
:102930002F813885F801E20FF31F10822E96E4E014
:102940000C944A17ACE0B0E0E8EAF4E10C942017EC
:102950007C016B018A01FC0117821682838181FF51
:10296000BDC1CE0101964C01F7019381F60193FDA3
:10297000859193FF81916F01882309F4ABC1853262
:1029800039F493FD859193FF81916F01853229F48C
:10299000B70190E00E948A16E7CF512C312C20E03D
:1029A0002032A0F48B3269F030F4803259F0833257
:1029B00069F420612CC08D3239F0803339F4216004
:1029C00026C02260246023C0286021C027FD27C0C4
:1029D00030ED380F3A3078F426FF06C0FAE05F9EFB
:1029E000300D1124532E13C08AE0389E300D11246F
:1029F000332E20620CC08E3221F426FD6BC1206480
:102A000006C08C3611F4206802C0883641F4F60105
:102A100093FD859193FF81916F018111C1CF982F13
:102A20009F7D9554933028F40C5F1F4FFFE3F9838B
:102A30000DC0833631F0833771F0833509F05BC008
:102A400022C0F801808189830E5F1F4F4424439484
:102A5000512C540115C03801F2E06F0E711CF801C1
:102A6000A080B18026FF03C0652D70E002C06FEF2B
:102A70007FEFC5012C870E947F162C0183012C85D6
:102A80002F77222E17C03801F2E06F0E711CF8016B
:102A9000A080B18026FF03C0652D70E002C06FEFFB
:102AA0007FEFC5012C870E9474162C012C852068AD
:102AB000222E830123FC1BC0832D90E0481659066B
:102AC000B0F4B70180E290E00E948A163A94F4CF05
:102AD000F50127FC859127FE81915F01B70190E008
:102AE0000E948A1631103A94F1E04F1A51084114AD
:102AF000510471F7E5C0843611F0893639F5F801D3
:102B000027FF07C060817181828193810C5F1F4F15
:102B100008C060817181072E000C880B990B0E5F35
:102B20001F4F2F76722E97FF09C090958095709554
:102B300061957F4F8F4F9F4F2068722E2AE030E0C3
:102B4000A4010E94C216A82EA81844C0853729F4F3
:102B50002F7EB22E2AE030E025C0F22FF97FBF2E63
:102B60008F36C1F018F4883579F0B4C0803719F089
:102B7000883721F0AFC02F2F2061B22EB4FE0DC0D8
:102B80008B2D8460B82E09C024FF0AC09F2F966049
:102B9000B92E06C028E030E005C020E130E002C0D8
:102BA00020E132E0F801B7FE07C0608171818281C7
:102BB00093810C5F1F4F06C06081718180E090E0BF
:102BC0000E5F1F4FA4010E94C216A82EA818FB2D4D
:102BD000FF777F2E76FE0BC0372D3E7FA51450F475
:102BE00074FE0AC072FC08C0372D3E7E05C0BA2CA8
:102BF000372D03C0BA2C01C0B52C34FF0DC0FE0127
:102C0000EA0DF11D8081803311F4397E09C032FF55
:102C100006C0B394B39404C0832F867809F0B394AC
:102C200033FD13C030FF06C05A2CB31418F4530CF4
:102C30005B18B32CB31468F4B70180E290E03C87D2
:102C40000E948A16B3943C85F5CFB31410F43B1858
:102C500001C0312C34FF12C0B70180E390E03C8703
:102C60000E948A163C8532FF17C031FD03C088E7F9
:102C700090E002C088E590E0B7010CC0832F867811
:102C800059F031FF02C08BE201C080E237FD8DE2D6
:102C9000B70190E00E948A16A51438F4B70180E3CA
:102CA00090E00E948A165A94F7CFAA94F401EA0D94
:102CB000F11D8081B70190E00E948A16A110F5CF26
:102CC000332009F451CEB70180E290E00E948A16C9
:102CD0003A94F6CFF7018681978102C08FEF9FEF7C
:102CE0002C96E2E10C943C17FC0105906150704079
:102CF0000110D8F7809590958E0F9F1F0895FC01C5
:102D00006150704001900110D8F7809590958E0F1A
:102D10009F1F08950F931F93CF93DF93FB01238190
:102D200021FD03C08FEF9FEF28C022FF16C0468110
:102D30005781248135814217530744F4A081B18122
:102D40009D012F5F3F4F318320838C9326813781F4
:102D50002F5F3F4F3783268310C0EB01092F182FB9
:102D60000084F185E02D0995892BE1F68E819F8104
:102D700001969F838E83812F902FDF91CF911F919A
:102D80000F910895FA01AA27283051F1203181F1DD
:102D9000E8946F936E7F6E5F7F4F8F4F9F4FAF4F63
:102DA000B1E03ED0B4E03CD0670F781F891F9A1F76
:102DB000A11D680F791F8A1F911DA11D6A0F711D2A
:102DC000811D911DA11D20D009F468943F912AE036
:102DD000269F11243019305D3193DEF6CF0108951E
:102DE000462F4770405D4193B3E00FD0C9F7F6CF4F
:102DF000462F4F70405D4A3318F0495D31FD405217
:102E0000419302D0A9F7EACFB4E0A69597958795AC
:102E100077956795BA95C9F700976105710508958B
:102E20009B01AC010A2E0694579547953795279537
:102E3000BA95C9F7620F731F841F951FA01D0895CF
:102E40002F923F924F925F926F927F928F929F92BA
:102E5000AF92BF92CF92DF92EF92FF920F931F93A8
:102E6000CF93DF93CDB7DEB7CA1BDB0B0FB6F89459
:102E7000DEBF0FBECDBF09942A88398848885F8499
:102E80006E847D848C849B84AA84B984C884DF800A
:102E9000EE80FD800C811B81AA81B981CE0FD11DEE
:102EA0000FB6F894DEBF0FBECDBFED01089510E060
:102EB000CBE8D0E004C0FE010E941F142196CC385C
:082EC000D107C9F7F894FFCF18
:102EC800080C101014182051000000008508F207A3
:102ED8001D08CC084E082C08400800000000EE0130
:102EE800BE0189015C0180016C015D0100000000E8
:102EF800CF00F2078901CE0023013B01B600000094
:102F080000007E09F207890188014750524D4300AD
:102F1800475047474100202000253032642F253094
:102F280032642F253032642000253032643A25304F
:102F380032643A2530326420004E62206465207382
:102F48006174656C6C69746573000D0A0048646F80
:102F580070203D20004C6174746974756465203D6F
:102F680020004C6F6E676974756465203D200041D0
:102F78006C746974756465203D20004E6F2047505D
:102F88005320646174612072656365697665643A8B
:102F980020636865636B20776972696E67006E618C
:0A2FA8006E00696E66006F76660029
:00000001FF
